{"contracts/TapOrder.sol":{"TapOrder":{"abi":[{"inputs":[{"internalType":"address","name":"_priceFeedAdapter","type":"address"},{"internalType":"address","name":"_payoutPool","type":"address"}],"stateMutability":"nonpayable","type":"constructor"},{"inputs":[{"internalType":"uint256","name":"orderId","type":"uint256"}],"name":"AlreadySettled","type":"error"},{"inputs":[{"internalType":"string","name":"asset","type":"string"}],"name":"AssetNotWhitelisted","type":"error"},{"inputs":[],"name":"EnforcedPause","type":"error"},{"inputs":[],"name":"ExpectedPause","type":"error"},{"inputs":[{"internalType":"uint256","name":"required","type":"uint256"},{"internalType":"uint256","name":"available","type":"uint256"}],"name":"InsufficientLiquidity","type":"error"},{"inputs":[{"internalType":"uint256","name":"duration","type":"uint256"}],"name":"InvalidDuration","type":"error"},{"inputs":[{"internalType":"uint256","name":"multiplierBps","type":"uint256"}],"name":"InvalidMultiplier","type":"error"},{"inputs":[{"internalType":"uint256","name":"orderId","type":"uint256"},{"internalType":"uint8","name":"status","type":"uint8"}],"name":"OrderNotOpen","type":"error"},{"inputs":[{"internalType":"address","name":"owner","type":"address"}],"name":"OwnableInvalidOwner","type":"error"},{"inputs":[{"internalType":"address","name":"account","type":"address"}],"name":"OwnableUnauthorizedAccount","type":"error"},{"inputs":[],"name":"ReentrancyGuardReentrantCall","type":"error"},{"inputs":[{"internalType":"string","name":"asset","type":"string"}],"name":"StalePriceFeed","type":"error"},{"inputs":[],"name":"ZeroStake","type":"error"},{"anonymous":false,"inputs":[{"indexed":true,"internalType":"string","name":"assetKey","type":"string"},{"indexed":false,"internalType":"address","name":"feed","type":"address"}],"name":"AssetAdded","type":"event"},{"anonymous":false,"inputs":[{"indexed":true,"internalType":"uint256","name":"orderId","type":"uint256"},{"indexed":true,"internalType":"address","name":"user","type":"address"},{"indexed":false,"internalType":"string","name":"assetKey","type":"string"},{"indexed":false,"internalType":"int256","name":"targetPrice","type":"int256"},{"indexed":false,"internalType":"bool","name":"isAbove","type":"bool"},{"indexed":false,"internalType":"uint256","name":"stake","type":"uint256"},{"indexed":false,"internalType":"uint256","name":"multiplierBps","type":"uint256"},{"indexed":false,"internalType":"uint256","name":"expiry","type":"uint256"}],"name":"OrderCreated","type":"event"},{"anonymous":false,"inputs":[{"indexed":true,"internalType":"uint256","name":"orderId","type":"uint256"},{"indexed":true,"internalType":"address","name":"user","type":"address"}],"name":"OrderLost","type":"event"},{"anonymous":false,"inputs":[{"indexed":true,"internalType":"uint256","name":"orderId","type":"uint256"},{"indexed":true,"internalType":"address","name":"user","type":"address"},{"indexed":false,"internalType":"uint256","name":"payout","type":"uint256"}],"name":"OrderWon","type":"event"},{"anonymous":false,"inputs":[{"indexed":true,"internalType":"address","name":"previousOwner","type":"address"},{"indexed":true,"internalType":"address","name":"newOwner","type":"address"}],"name":"OwnershipTransferred","type":"event"},{"anonymous":false,"inputs":[{"indexed":false,"internalType":"address","name":"account","type":"address"}],"name":"Paused","type":"event"},{"anonymous":false,"inputs":[{"indexed":false,"internalType":"bool","name":"isPaused","type":"bool"}],"name":"PausedToggled","type":"event"},{"anonymous":false,"inputs":[{"indexed":false,"internalType":"address","name":"account","type":"address"}],"name":"Unpaused","type":"event"},{"inputs":[],"name":"DURATION_15M","outputs":[{"internalType":"uint256","name":"","type":"uint256"}],"stateMutability":"view","type":"function"},{"inputs":[],"name":"DURATION_1M","outputs":[{"internalType":"uint256","name":"","type":"uint256"}],"stateMutability":"view","type":"function"},{"inputs":[],"name":"DURATION_5M","outputs":[{"internalType":"uint256","name":"","type":"uint256"}],"stateMutability":"view","type":"function"},{"inputs":[{"internalType":"string","name":"assetKey","type":"string"},{"internalType":"address","name":"feed","type":"address"}],"name":"addAsset","outputs":[],"stateMutability":"nonpayable","type":"function"},{"inputs":[{"internalType":"uint256","name":"","type":"uint256"}],"name":"allowedMultipliers","outputs":[{"internalType":"bool","name":"","type":"bool"}],"stateMutability":"view","type":"function"},{"inputs":[{"internalType":"string","name":"","type":"string"}],"name":"assetFeeds","outputs":[{"internalType":"address","name":"","type":"address"}],"stateMutability":"view","type":"function"},{"inputs":[{"internalType":"uint256[]","name":"orderIds","type":"uint256[]"}],"name":"batchSettle","outputs":[],"stateMutability":"nonpayable","type":"function"},{"inputs":[{"internalType":"string","name":"assetKey","type":"string"},{"internalType":"int256","name":"targetPrice","type":"int256"},{"internalType":"bool","name":"isAbove","type":"bool"},{"internalType":"uint256","name":"durationSecs","type":"uint256"},{"internalType":"uint256","name":"multiplierBps","type":"uint256"}],"name":"createOrder","outputs":[],"stateMutability":"payable","type":"function"},{"inputs":[],"name":"nextOrderId","outputs":[{"internalType":"uint256","name":"","type":"uint256"}],"stateMutability":"view","type":"function"},{"inputs":[{"internalType":"uint256","name":"","type":"uint256"}],"name":"orders","outputs":[{"internalType":"address","name":"user","type":"address"},{"internalType":"string","name":"assetKey","type":"string"},{"internalType":"int256","name":"targetPrice","type":"int256"},{"internalType":"bool","name":"isAbove","type":"bool"},{"internalType":"uint256","name":"stake","type":"uint256"},{"internalType":"uint256","name":"multiplierBps","type":"uint256"},{"internalType":"uint256","name":"expiry","type":"uint256"},{"internalType":"enum TapOrder.OrderStatus","name":"status","type":"uint8"}],"stateMutability":"view","type":"function"},{"inputs":[],"name":"owner","outputs":[{"internalType":"address","name":"","type":"address"}],"stateMutability":"view","type":"function"},{"inputs":[],"name":"pause","outputs":[],"stateMutability":"nonpayable","type":"function"},{"inputs":[],"name":"paused","outputs":[{"internalType":"bool","name":"","type":"bool"}],"stateMutability":"view","type":"function"},{"inputs":[],"name":"payoutPool","outputs":[{"internalType":"contract PayoutPool","name":"","type":"address"}],"stateMutability":"view","type":"function"},{"inputs":[],"name":"priceFeedAdapter","outputs":[{"internalType":"contract PriceFeedAdapter","name":"","type":"address"}],"stateMutability":"view","type":"function"},{"inputs":[],"name":"renounceOwnership","outputs":[],"stateMutability":"nonpayable","type":"function"},{"inputs":[{"internalType":"uint256","name":"orderId","type":"uint256"}],"name":"settleOrder","outputs":[],"stateMutability":"nonpayable","type":"function"},{"inputs":[{"internalType":"uint256","name":"","type":"uint256"}],"name":"settled","outputs":[{"internalType":"bool","name":"","type":"bool"}],"stateMutability":"view","type":"function"},{"inputs":[{"internalType":"address","name":"newOwner","type":"address"}],"name":"transferOwnership","outputs":[],"stateMutability":"nonpayable","type":"function"},{"inputs":[],"name":"unpause","outputs":[],"stateMutability":"nonpayable","type":"function"}],"evm":{"bytecode":{"linkReferences":{},"object":"608060405260016003553480156200001657600080fd5b506040516200193d3803806200193d8339810160408190526200003991620001bf565b33806200006057604051631e4fbdf760e01b81526000600482015260240160405180910390fd5b6200006b8162000152565b5060017f9b779b17422d0df92223018b32b4d1fa46e071723d6817e2486d003becc55f0055600180546001600160a01b039384166001600160a01b0319918216178255600280549390941692169190911790915560066020527fdbf7dfb1b10537b92f8a90a98ea2652a215b1ccb1fe0411ff3d4cf38f89a466d805460ff1990811683179091557f8f94715c41861ded0243bcaee4debf8662069dc9307ad8ab30990ab1367ddaec80548216831790556103e86000527ff416400a389b2271c5c6051273e6b62961b6906215e5f4d9099a99323151c03f80549091169091179055620001f7565b600080546001600160a01b038381166001600160a01b0319831681178455604051919092169283917f8be0079c531659141344cd1fd0a4f28419497f9722a3daafe3b4186f6b6457e09190a35050565b80516001600160a01b0381168114620001ba57600080fd5b919050565b60008060408385031215620001d357600080fd5b620001de83620001a2565b9150620001ee60208401620001a2565b90509250929050565b61173680620002076000396000f3fe60806040526004361061011f5760003560e01c8063715018a6116100a0578063a85c38ef11610064578063a85c38ef14610332578063adc02a6414610366578063b451d1a914610386578063b50e801d1461039c578063f2fde38b146103bc57600080fd5b8063715018a6146102b45780637cb591c0146102c95780637e750398146102df5780638456cb59146102ff5780638da5cb5b1461031457600080fd5b8063301aa87b116100e7578063301aa87b1461020a5780633f4ba83a1461024b5780635c975abb146102605780636273106a1461027f5780636d86e0441461029f57600080fd5b8063026b4fea1461012457806306183110146101395780631ac9612c1461017657806328345780146101b65780632a58b330146101e6575b600080fd5b610137610132366004610fd5565b6103dc565b005b34801561014557600080fd5b50600154610159906001600160a01b031681565b6040516001600160a01b0390911681526020015b60405180910390f35b34801561018257600080fd5b506101a661019136600461104b565b60066020526000908152604090205460ff1681565b604051901515815260200161016d565b3480156101c257600080fd5b506101a66101d136600461104b565b60076020526000908152604090205460ff1681565b3480156101f257600080fd5b506101fc60035481565b60405190815260200161016d565b34801561021657600080fd5b5061015961022536600461107a565b80516020818301810180516005825292820191909301209152546001600160a01b031681565b34801561025757600080fd5b506101376107c4565b34801561026c57600080fd5b50600054600160a01b900460ff166101a6565b34801561028b57600080fd5b50600254610159906001600160a01b031681565b3480156102ab57600080fd5b506101fc603c81565b3480156102c057600080fd5b5061013761080b565b3480156102d557600080fd5b506101fc61038481565b3480156102eb57600080fd5b506101376102fa36600461112b565b61081f565b34801561030b57600080fd5b506101376108a2565b34801561032057600080fd5b506000546001600160a01b0316610159565b34801561033e57600080fd5b5061035261034d36600461104b565b6108e3565b60405161016d9897969594939291906111d8565b34801561037257600080fd5b50610137610381366004611297565b6109be565b34801561039257600080fd5b506101fc61012c81565b3480156103a857600080fd5b506101376103b736600461104b565b610a5e565b3480156103c857600080fd5b506101376103d73660046112eb565b610a89565b6103e4610ac4565b6103ec610aef565b60006005878760405161040092919061130d565b908152604051908190036020019020546001600160a01b03169050806104465786866040516337232f7f60e01b815260040161043d929190611346565b60405180910390fd5b60008281526006602052604090205460ff1661047857604051639f44c9eb60e01b81526004810183905260240161043d565b603c831415801561048b575061012c8314155b801561049957506103848314155b156104ba576040516313b783af60e21b81526004810184905260240161043d565b346000036104db5760405163150a67e960e01b815260040160405180910390fd5b600154604051630c607acf60e01b81526001600160a01b0390911690630c607acf9061050f908a908a908690600401611362565b600060405180830381600087803b15801561052957600080fd5b505af115801561053d573d6000803e3d6000fd5b505050506000612710833461055291906113a4565b61055c91906113bb565b60025460405163f8b2cb4f60e01b81526001600160a01b0385811660048301529293506000929091169063f8b2cb4f90602401602060405180830381865afa1580156105ac573d6000803e3d6000fd5b505050506040513d601f19601f820116820180604052508101906105d091906113dd565b9050818110156105fd5760405163a17e11d560e01b8152600481018390526024810182905260440161043d565b600380546000918261060e836113f6565b9091555090506000610620874261140f565b9050604051806101000160405280336001600160a01b031681526020018c8c8080601f0160208091040260200160405190810160405280939291908181526020018383808284376000920182905250938552505050602082018c90528a151560408301523460608301526080820189905260a0820184905260c0909101526000838152600460209081526040909120825181546001600160a01b0319166001600160a01b039091161781559082015160018201906106de90826114a7565b506040820151600280830191909155606083015160038301805491151560ff199283161790556080840151600484015560a0840151600584015560c0840151600684015560e0840151600784018054919390929190911690600190849081111561074a5761074a6111a0565b0217905550905050336001600160a01b0316827f13a0d3f6b937ea5fefac2c0e489ebc86d4939e182db7f677910a75a036d2461a8d8d8d8d348d896040516107989796959493929190611567565b60405180910390a350505050506107bc60016000805160206116e183398151915255565b505050505050565b6107cc610b0b565b6107d4610b38565b604051600081527fda88b5dfaac55549d4ddddd43a09d4b911233df354952ebc9ac2041aa1853436906020015b60405180910390a1565b610813610b0b565b61081d6000610b88565b565b8060005b8181101561089c573063b50e801d858584818110610843576108436115a5565b905060200201356040518263ffffffff1660e01b815260040161086891815260200190565b600060405180830381600087803b15801561088257600080fd5b505af1925050508015610893575060015b50600101610823565b50505050565b6108aa610b0b565b6108b2610bd8565b604051600181527fda88b5dfaac55549d4ddddd43a09d4b911233df354952ebc9ac2041aa185343690602001610801565b600460205260009081526040902080546001820180546001600160a01b03909216929161090f90611422565b80601f016020809104026020016040519081016040528092919081815260200182805461093b90611422565b80156109885780601f1061095d57610100808354040283529160200191610988565b820191906000526020600020905b81548152906001019060200180831161096b57829003601f168201915b505050600284015460038501546004860154600587015460068801546007909801549697939660ff938416965091945092911688565b6109c6610b0b565b80600584846040516109d992919061130d565b90815260405190819003602001812080546001600160a01b03939093166001600160a01b031990931692909217909155610a16908490849061130d565b6040519081900381206001600160a01b0383168252907f77780d19d6f850ec861d508f6035068d0b68fb9d334887c55393910e9b2951ea9060200160405180910390a2505050565b610a66610aef565b610a6f81610c1b565b610a8660016000805160206116e183398151915255565b50565b610a91610b0b565b6001600160a01b038116610abb57604051631e4fbdf760e01b81526000600482015260240161043d565b610a8681610b88565b600054600160a01b900460ff161561081d5760405163d93c066560e01b815260040160405180910390fd5b610af7610f04565b60026000805160206116e183398151915255565b6000546001600160a01b0316331461081d5760405163118cdaa760e01b815233600482015260240161043d565b610b40610f34565b6000805460ff60a01b191690557f5db9ee0a495bf2e6ff9c91a7834c1ba4fdd244a5e8aa4e537bd38aeae4b073aa335b6040516001600160a01b039091168152602001610801565b600080546001600160a01b038381166001600160a01b0319831681178455604051919092169283917f8be0079c531659141344cd1fd0a4f28419497f9722a3daafe3b4186f6b6457e09190a35050565b610be0610ac4565b6000805460ff60a01b1916600160a01b1790557f62e78cea01bee320cd4e420270b5ea74000d11b0c9f74754ebdbfc544b05a258610b703390565b600081815260046020526040812090600782015460ff166002811115610c4357610c436111a0565b14610c88576007810154829060ff166002811115610c6357610c636111a0565b604051630a78aad360e41b8152600481019290925260ff16602482015260440161043d565b60008281526007602052604090205460ff1615610cbb576040516347f629af60e11b81526004810183905260240161043d565b600082815260076020526040808220805460ff191660019081179091558054915163f66a1b7160e01b81526001600160a01b039092169163f66a1b7191610d0891908601906004016115bb565b6040805180830381865afa925050508015610d40575060408051601f3d908101601f19168201909252610d3d91810190611646565b60015b610d785760008381526007602052604090819020805460ff191690555163d0cdbfc760e01b815261043d9060018401906004016115bb565b5090506000610d878383610f5e565b90508015610eab5760078301805460ff191660011790556005830154600484015460009161271091610db991906113a4565b610dc391906113bb565b6002546040519192506001600160a01b0316906320f801d490600590610ded90600189019061166a565b9081526040519081900360200181205487546001600160e01b031960e085901b1683526001600160a01b03918216600484015216602482015260448101849052606401600060405180830381600087803b158015610e4a57600080fd5b505af1158015610e5e573d6000803e3d6000fd5b505085546040518481526001600160a01b0390911692508791507f3417499c22576a96a6fb7d02b8d63e7d1f4f94af0f25b52a930bbddfdfcf57649060200160405180910390a35061089c565b8260060154421061089c5760078301805460ff1916600217905582546040516001600160a01b039091169085907fad69e57c5fbff40d58ba1a08b2ef5774b250c5d0f39dfe66f6ad9c3503bd1cf690600090a350505050565b6000805160206116e18339815191525460020361081d57604051633ee5aeb560e01b815260040160405180910390fd5b600054600160a01b900460ff1661081d57604051638dfc202b60e01b815260040160405180910390fd5b600382015460009060ff1615610f7c57506002820154811215610f86565b5060028201548113155b92915050565b60008083601f840112610f9e57600080fd5b50813567ffffffffffffffff811115610fb657600080fd5b602083019150836020828501011115610fce57600080fd5b9250929050565b60008060008060008060a08789031215610fee57600080fd5b863567ffffffffffffffff81111561100557600080fd5b61101189828a01610f8c565b909750955050602087013593506040870135801515811461103157600080fd5b959894975092956060810135946080909101359350915050565b60006020828403121561105d57600080fd5b5035919050565b634e487b7160e01b600052604160045260246000fd5b60006020828403121561108c57600080fd5b813567ffffffffffffffff808211156110a457600080fd5b818401915084601f8301126110b857600080fd5b8135818111156110ca576110ca611064565b604051601f8201601f19908116603f011681019083821181831017156110f2576110f2611064565b8160405282815287602084870101111561110b57600080fd5b826020860160208301376000928101602001929092525095945050505050565b6000806020838503121561113e57600080fd5b823567ffffffffffffffff8082111561115657600080fd5b818501915085601f83011261116a57600080fd5b81358181111561117957600080fd5b8660208260051b850101111561118e57600080fd5b60209290920196919550909350505050565b634e487b7160e01b600052602160045260246000fd5b600381106111d457634e487b7160e01b600052602160045260246000fd5b9052565b6001600160a01b0389168152610100602080830182905289519183018290526000918291905b8083101561121d578b83018201518584016101200152918101916111fe565b6101209250600083828701015282601f19601f830116860101935050505087604083015261124f606083018815159052565b8560808301528460a08301528360c083015261126e60e08301846111b6565b9998505050505050505050565b80356001600160a01b038116811461129257600080fd5b919050565b6000806000604084860312156112ac57600080fd5b833567ffffffffffffffff8111156112c357600080fd5b6112cf86828701610f8c565b90945092506112e290506020850161127b565b90509250925092565b6000602082840312156112fd57600080fd5b6113068261127b565b9392505050565b8183823760009101908152919050565b81835281816020850137506000828201602090810191909152601f909101601f19169091010190565b60208152600061135a60208301848661131d565b949350505050565b60408152600061137660408301858761131d565b905060018060a01b0383166020830152949350505050565b634e487b7160e01b600052601160045260246000fd5b8082028115828204841417610f8657610f8661138e565b6000826113d857634e487b7160e01b600052601260045260246000fd5b500490565b6000602082840312156113ef57600080fd5b5051919050565b6000600182016114085761140861138e565b5060010190565b80820180821115610f8657610f8661138e565b600181811c9082168061143657607f821691505b60208210810361145657634e487b7160e01b600052602260045260246000fd5b50919050565b601f8211156114a257600081815260208120601f850160051c810160208610156114835750805b601f850160051c820191505b818110156107bc5782815560010161148f565b505050565b815167ffffffffffffffff8111156114c1576114c1611064565b6114d5816114cf8454611422565b8461145c565b602080601f83116001811461150a57600084156114f25750858301515b600019600386901b1c1916600185901b1785556107bc565b600085815260208120601f198616915b828110156115395788860151825594840194600190910190840161151a565b50858210156115575787850151600019600388901b60f8161c191681555b5050505050600190811b01905550565b60c08152600061157b60c08301898b61131d565b60208301979097525093151560408501526060840192909252608083015260a09091015292915050565b634e487b7160e01b600052603260045260246000fd5b60006020808352600084546115cf81611422565b808487015260406001808416600081146115f0576001811461160a57611638565b60ff1985168984015283151560051b890183019550611638565b896000528660002060005b858110156116305781548b8201860152908301908801611615565b8a0184019650505b509398975050505050505050565b6000806040838503121561165957600080fd5b505080516020909101519092909150565b600080835461167881611422565b6001828116801561169057600181146116a5576116d4565b60ff19841687528215158302870194506116d4565b8760005260208060002060005b858110156116cb5781548a8201529084019082016116b2565b50505082870194505b5092969550505050505056fe9b779b17422d0df92223018b32b4d1fa46e071723d6817e2486d003becc55f00a2646970667358221220d877ed30e024ed19d31bd2e6ac5d9c5d4b96e6262edccb9ed049e432078fdf8964736f6c63430008140033","opcodes":"PUSH1 0x80 PUSH1 0x40 MSTORE PUSH1 0x1 PUSH1 0x3 SSTORE CALLVALUE DUP1 ISZERO PUSH3 0x16 JUMPI PUSH1 0x0 DUP1 REVERT JUMPDEST POP PUSH1 0x40 MLOAD PUSH3 0x193D CODESIZE SUB DUP1 PUSH3 0x193D DUP4 CODECOPY DUP2 ADD PUSH1 0x40 DUP2 SWAP1 MSTORE PUSH3 0x39 SWAP2 PUSH3 0x1BF JUMP JUMPDEST CALLER DUP1 PUSH3 0x60 JUMPI PUSH1 0x40 MLOAD PUSH4 0x1E4FBDF7 PUSH1 0xE0 SHL DUP2 MSTORE PUSH1 0x0 PUSH1 0x4 DUP3 ADD MSTORE PUSH1 0x24 ADD PUSH1 0x40 MLOAD DUP1 SWAP2 SUB SWAP1 REVERT JUMPDEST PUSH3 0x6B DUP2 PUSH3 0x152 JUMP JUMPDEST POP PUSH1 0x1 PUSH32 0x9B779B17422D0DF92223018B32B4D1FA46E071723D6817E2486D003BECC55F00 SSTORE PUSH1 0x1 DUP1 SLOAD PUSH1 0x1 PUSH1 0x1 PUSH1 0xA0 SHL SUB SWAP4 DUP5 AND PUSH1 0x1 PUSH1 0x1 PUSH1 0xA0 SHL SUB NOT SWAP2 DUP3 AND OR DUP3 SSTORE PUSH1 0x2 DUP1 SLOAD SWAP4 SWAP1 SWAP5 AND SWAP3 AND SWAP2 SWAP1 SWAP2 OR SWAP1 SWAP2 SSTORE PUSH1 0x6 PUSH1 0x20 MSTORE PUSH32 0xDBF7DFB1B10537B92F8A90A98EA2652A215B1CCB1FE0411FF3D4CF38F89A466D DUP1 SLOAD PUSH1 0xFF NOT SWAP1 DUP2 AND DUP4 OR SWAP1 SWAP2 SSTORE PUSH32 0x8F94715C41861DED0243BCAEE4DEBF8662069DC9307AD8AB30990AB1367DDAEC DUP1 SLOAD DUP3 AND DUP4 OR SWAP1 SSTORE PUSH2 0x3E8 PUSH1 0x0 MSTORE PUSH32 0xF416400A389B2271C5C6051273E6B62961B6906215E5F4D9099A99323151C03F DUP1 SLOAD SWAP1 SWAP2 AND SWAP1 SWAP2 OR SWAP1 SSTORE PUSH3 0x1F7 JUMP JUMPDEST PUSH1 0x0 DUP1 SLOAD PUSH1 0x1 PUSH1 0x1 PUSH1 0xA0 SHL SUB DUP4 DUP2 AND PUSH1 0x1 PUSH1 0x1 PUSH1 0xA0 SHL SUB NOT DUP4 AND DUP2 OR DUP5 SSTORE PUSH1 0x40 MLOAD SWAP2 SWAP1 SWAP3 AND SWAP3 DUP4 SWAP2 PUSH32 0x8BE0079C531659141344CD1FD0A4F28419497F9722A3DAAFE3B4186F6B6457E0 SWAP2 SWAP1 LOG3 POP POP JUMP JUMPDEST DUP1 MLOAD PUSH1 0x1 PUSH1 0x1 PUSH1 0xA0 SHL SUB DUP2 AND DUP2 EQ PUSH3 0x1BA JUMPI PUSH1 0x0 DUP1 REVERT JUMPDEST SWAP2 SWAP1 POP JUMP JUMPDEST PUSH1 0x0 DUP1 PUSH1 0x40 DUP4 DUP6 SUB SLT ISZERO PUSH3 0x1D3 JUMPI PUSH1 0x0 DUP1 REVERT JUMPDEST PUSH3 0x1DE DUP4 PUSH3 0x1A2 JUMP JUMPDEST SWAP2 POP PUSH3 0x1EE PUSH1 0x20 DUP5 ADD PUSH3 0x1A2 JUMP JUMPDEST SWAP1 POP SWAP3 POP SWAP3 SWAP1 POP JUMP JUMPDEST PUSH2 0x1736 DUP1 PUSH3 0x207 PUSH1 0x0 CODECOPY PUSH1 0x0 RETURN INVALID PUSH1 0x80 PUSH1 0x40 MSTORE PUSH1 0x4 CALLDATASIZE LT PUSH2 0x11F JUMPI PUSH1 0x0 CALLDATALOAD PUSH1 0xE0 SHR DUP1 PUSH4 0x715018A6 GT PUSH2 0xA0 JUMPI DUP1 PUSH4 0xA85C38EF GT PUSH2 0x64 JUMPI DUP1 PUSH4 0xA85C38EF EQ PUSH2 0x332 JUMPI DUP1 PUSH4 0xADC02A64 EQ PUSH2 0x366 JUMPI DUP1 PUSH4 0xB451D1A9 EQ PUSH2 0x386 JUMPI DUP1 PUSH4 0xB50E801D EQ PUSH2 0x39C JUMPI DUP1 PUSH4 0xF2FDE38B EQ PUSH2 0x3BC JUMPI PUSH1 0x0 DUP1 REVERT JUMPDEST DUP1 PUSH4 0x715018A6 EQ PUSH2 0x2B4 JUMPI DUP1 PUSH4 0x7CB591C0 EQ PUSH2 0x2C9 JUMPI DUP1 PUSH4 0x7E750398 EQ PUSH2 0x2DF JUMPI DUP1 PUSH4 0x8456CB59 EQ PUSH2 0x2FF JUMPI DUP1 PUSH4 0x8DA5CB5B EQ PUSH2 0x314 JUMPI PUSH1 0x0 DUP1 REVERT JUMPDEST DUP1 PUSH4 0x301AA87B GT PUSH2 0xE7 JUMPI DUP1 PUSH4 0x301AA87B EQ PUSH2 0x20A JUMPI DUP1 PUSH4 0x3F4BA83A EQ PUSH2 0x24B JUMPI DUP1 PUSH4 0x5C975ABB EQ PUSH2 0x260 JUMPI DUP1 PUSH4 0x6273106A EQ PUSH2 0x27F JUMPI DUP1 PUSH4 0x6D86E044 EQ PUSH2 0x29F JUMPI PUSH1 0x0 DUP1 REVERT JUMPDEST DUP1 PUSH4 0x26B4FEA EQ PUSH2 0x124 JUMPI DUP1 PUSH4 0x6183110 EQ PUSH2 0x139 JUMPI DUP1 PUSH4 0x1AC9612C EQ PUSH2 0x176 JUMPI DUP1 PUSH4 0x28345780 EQ PUSH2 0x1B6 JUMPI DUP1 PUSH4 0x2A58B330 EQ PUSH2 0x1E6 JUMPI JUMPDEST PUSH1 0x0 DUP1 REVERT JUMPDEST PUSH2 0x137 PUSH2 0x132 CALLDATASIZE PUSH1 0x4 PUSH2 0xFD5 JUMP JUMPDEST PUSH2 0x3DC JUMP JUMPDEST STOP JUMPDEST CALLVALUE DUP1 ISZERO PUSH2 0x145 JUMPI PUSH1 0x0 DUP1 REVERT JUMPDEST POP PUSH1 0x1 SLOAD PUSH2 0x159 SWAP1 PUSH1 0x1 PUSH1 0x1 PUSH1 0xA0 SHL SUB AND DUP2 JUMP JUMPDEST PUSH1 0x40 MLOAD PUSH1 0x1 PUSH1 0x1 PUSH1 0xA0 SHL SUB SWAP1 SWAP2 AND DUP2 MSTORE PUSH1 0x20 ADD JUMPDEST PUSH1 0x40 MLOAD DUP1 SWAP2 SUB SWAP1 RETURN JUMPDEST CALLVALUE DUP1 ISZERO PUSH2 0x182 JUMPI PUSH1 0x0 DUP1 REVERT JUMPDEST POP PUSH2 0x1A6 PUSH2 0x191 CALLDATASIZE PUSH1 0x4 PUSH2 0x104B JUMP JUMPDEST PUSH1 0x6 PUSH1 0x20 MSTORE PUSH1 0x0 SWAP1 DUP2 MSTORE PUSH1 0x40 SWAP1 KECCAK256 SLOAD PUSH1 0xFF AND DUP2 JUMP JUMPDEST PUSH1 0x40 MLOAD SWAP1 ISZERO ISZERO DUP2 MSTORE PUSH1 0x20 ADD PUSH2 0x16D JUMP JUMPDEST CALLVALUE DUP1 ISZERO PUSH2 0x1C2 JUMPI PUSH1 0x0 DUP1 REVERT JUMPDEST POP PUSH2 0x1A6 PUSH2 0x1D1 CALLDATASIZE PUSH1 0x4 PUSH2 0x104B JUMP JUMPDEST PUSH1 0x7 PUSH1 0x20 MSTORE PUSH1 0x0 SWAP1 DUP2 MSTORE PUSH1 0x40 SWAP1 KECCAK256 SLOAD PUSH1 0xFF AND DUP2 JUMP JUMPDEST CALLVALUE DUP1 ISZERO PUSH2 0x1F2 JUMPI PUSH1 0x0 DUP1 REVERT JUMPDEST POP PUSH2 0x1FC PUSH1 0x3 SLOAD DUP2 JUMP JUMPDEST PUSH1 0x40 MLOAD SWAP1 DUP2 MSTORE PUSH1 0x20 ADD PUSH2 0x16D JUMP JUMPDEST CALLVALUE DUP1 ISZERO PUSH2 0x216 JUMPI PUSH1 0x0 DUP1 REVERT JUMPDEST POP PUSH2 0x159 PUSH2 0x225 CALLDATASIZE PUSH1 0x4 PUSH2 0x107A JUMP JUMPDEST DUP1 MLOAD PUSH1 0x20 DUP2 DUP4 ADD DUP2 ADD DUP1 MLOAD PUSH1 0x5 DUP3 MSTORE SWAP3 DUP3 ADD SWAP2 SWAP1 SWAP4 ADD KECCAK256 SWAP2 MSTORE SLOAD PUSH1 0x1 PUSH1 0x1 PUSH1 0xA0 SHL SUB AND DUP2 JUMP JUMPDEST CALLVALUE DUP1 ISZERO PUSH2 0x257 JUMPI PUSH1 0x0 DUP1 REVERT JUMPDEST POP PUSH2 0x137 PUSH2 0x7C4 JUMP JUMPDEST CALLVALUE DUP1 ISZERO PUSH2 0x26C JUMPI PUSH1 0x0 DUP1 REVERT JUMPDEST POP PUSH1 0x0 SLOAD PUSH1 0x1 PUSH1 0xA0 SHL SWAP1 DIV PUSH1 0xFF AND PUSH2 0x1A6 JUMP JUMPDEST CALLVALUE DUP1 ISZERO PUSH2 0x28B JUMPI PUSH1 0x0 DUP1 REVERT JUMPDEST POP PUSH1 0x2 SLOAD PUSH2 0x159 SWAP1 PUSH1 0x1 PUSH1 0x1 PUSH1 0xA0 SHL SUB AND DUP2 JUMP JUMPDEST CALLVALUE DUP1 ISZERO PUSH2 0x2AB JUMPI PUSH1 0x0 DUP1 REVERT JUMPDEST POP PUSH2 0x1FC PUSH1 0x3C DUP2 JUMP JUMPDEST CALLVALUE DUP1 ISZERO PUSH2 0x2C0 JUMPI PUSH1 0x0 DUP1 REVERT JUMPDEST POP PUSH2 0x137 PUSH2 0x80B JUMP JUMPDEST CALLVALUE DUP1 ISZERO PUSH2 0x2D5 JUMPI PUSH1 0x0 DUP1 REVERT JUMPDEST POP PUSH2 0x1FC PUSH2 0x384 DUP2 JUMP JUMPDEST CALLVALUE DUP1 ISZERO PUSH2 0x2EB JUMPI PUSH1 0x0 DUP1 REVERT JUMPDEST POP PUSH2 0x137 PUSH2 0x2FA CALLDATASIZE PUSH1 0x4 PUSH2 0x112B JUMP JUMPDEST PUSH2 0x81F JUMP JUMPDEST CALLVALUE DUP1 ISZERO PUSH2 0x30B JUMPI PUSH1 0x0 DUP1 REVERT JUMPDEST POP PUSH2 0x137 PUSH2 0x8A2 JUMP JUMPDEST CALLVALUE DUP1 ISZERO PUSH2 0x320 JUMPI PUSH1 0x0 DUP1 REVERT JUMPDEST POP PUSH1 0x0 SLOAD PUSH1 0x1 PUSH1 0x1 PUSH1 0xA0 SHL SUB AND PUSH2 0x159 JUMP JUMPDEST CALLVALUE DUP1 ISZERO PUSH2 0x33E JUMPI PUSH1 0x0 DUP1 REVERT JUMPDEST POP PUSH2 0x352 PUSH2 0x34D CALLDATASIZE PUSH1 0x4 PUSH2 0x104B JUMP JUMPDEST PUSH2 0x8E3 JUMP JUMPDEST PUSH1 0x40 MLOAD PUSH2 0x16D SWAP9 SWAP8 SWAP7 SWAP6 SWAP5 SWAP4 SWAP3 SWAP2 SWAP1 PUSH2 0x11D8 JUMP JUMPDEST CALLVALUE DUP1 ISZERO PUSH2 0x372 JUMPI PUSH1 0x0 DUP1 REVERT JUMPDEST POP PUSH2 0x137 PUSH2 0x381 CALLDATASIZE PUSH1 0x4 PUSH2 0x1297 JUMP JUMPDEST PUSH2 0x9BE JUMP JUMPDEST CALLVALUE DUP1 ISZERO PUSH2 0x392 JUMPI PUSH1 0x0 DUP1 REVERT JUMPDEST POP PUSH2 0x1FC PUSH2 0x12C DUP2 JUMP JUMPDEST CALLVALUE DUP1 ISZERO PUSH2 0x3A8 JUMPI PUSH1 0x0 DUP1 REVERT JUMPDEST POP PUSH2 0x137 PUSH2 0x3B7 CALLDATASIZE PUSH1 0x4 PUSH2 0x104B JUMP JUMPDEST PUSH2 0xA5E JUMP JUMPDEST CALLVALUE DUP1 ISZERO PUSH2 0x3C8 JUMPI PUSH1 0x0 DUP1 REVERT JUMPDEST POP PUSH2 0x137 PUSH2 0x3D7 CALLDATASIZE PUSH1 0x4 PUSH2 0x12EB JUMP JUMPDEST PUSH2 0xA89 JUMP JUMPDEST PUSH2 0x3E4 PUSH2 0xAC4 JUMP JUMPDEST PUSH2 0x3EC PUSH2 0xAEF JUMP JUMPDEST PUSH1 0x0 PUSH1 0x5 DUP8 DUP8 PUSH1 0x40 MLOAD PUSH2 0x400 SWAP3 SWAP2 SWAP1 PUSH2 0x130D JUMP JUMPDEST SWAP1 DUP2 MSTORE PUSH1 0x40 MLOAD SWAP1 DUP2 SWAP1 SUB PUSH1 0x20 ADD SWAP1 KECCAK256 SLOAD PUSH1 0x1 PUSH1 0x1 PUSH1 0xA0 SHL SUB AND SWAP1 POP DUP1 PUSH2 0x446 JUMPI DUP7 DUP7 PUSH1 0x40 MLOAD PUSH4 0x37232F7F PUSH1 0xE0 SHL DUP2 MSTORE PUSH1 0x4 ADD PUSH2 0x43D SWAP3 SWAP2 SWAP1 PUSH2 0x1346 JUMP JUMPDEST PUSH1 0x40 MLOAD DUP1 SWAP2 SUB SWAP1 REVERT JUMPDEST PUSH1 0x0 DUP3 DUP2 MSTORE PUSH1 0x6 PUSH1 0x20 MSTORE PUSH1 0x40 SWAP1 KECCAK256 SLOAD PUSH1 0xFF AND PUSH2 0x478 JUMPI PUSH1 0x40 MLOAD PUSH4 0x9F44C9EB PUSH1 0xE0 SHL DUP2 MSTORE PUSH1 0x4 DUP2 ADD DUP4 SWAP1 MSTORE PUSH1 0x24 ADD PUSH2 0x43D JUMP JUMPDEST PUSH1 0x3C DUP4 EQ ISZERO DUP1 ISZERO PUSH2 0x48B JUMPI POP PUSH2 0x12C DUP4 EQ ISZERO JUMPDEST DUP1 ISZERO PUSH2 0x499 JUMPI POP PUSH2 0x384 DUP4 EQ ISZERO JUMPDEST ISZERO PUSH2 0x4BA JUMPI PUSH1 0x40 MLOAD PUSH4 0x13B783AF PUSH1 0xE2 SHL DUP2 MSTORE PUSH1 0x4 DUP2 ADD DUP5 SWAP1 MSTORE PUSH1 0x24 ADD PUSH2 0x43D JUMP JUMPDEST CALLVALUE PUSH1 0x0 SUB PUSH2 0x4DB JUMPI PUSH1 0x40 MLOAD PUSH4 0x150A67E9 PUSH1 0xE0 SHL DUP2 MSTORE PUSH1 0x4 ADD PUSH1 0x40 MLOAD DUP1 SWAP2 SUB SWAP1 REVERT JUMPDEST PUSH1 0x1 SLOAD PUSH1 0x40 MLOAD PUSH4 0xC607ACF PUSH1 0xE0 SHL DUP2 MSTORE PUSH1 0x1 PUSH1 0x1 PUSH1 0xA0 SHL SUB SWAP1 SWAP2 AND SWAP1 PUSH4 0xC607ACF SWAP1 PUSH2 0x50F SWAP1 DUP11 SWAP1 DUP11 SWAP1 DUP7 SWAP1 PUSH1 0x4 ADD PUSH2 0x1362 JUMP JUMPDEST PUSH1 0x0 PUSH1 0x40 MLOAD DUP1 DUP4 SUB DUP2 PUSH1 0x0 DUP8 DUP1 EXTCODESIZE ISZERO DUP1 ISZERO PUSH2 0x529 JUMPI PUSH1 0x0 DUP1 REVERT JUMPDEST POP GAS CALL ISZERO DUP1 ISZERO PUSH2 0x53D JUMPI RETURNDATASIZE PUSH1 0x0 DUP1 RETURNDATACOPY RETURNDATASIZE PUSH1 0x0 REVERT JUMPDEST POP POP POP POP PUSH1 0x0 PUSH2 0x2710 DUP4 CALLVALUE PUSH2 0x552 SWAP2 SWAP1 PUSH2 0x13A4 JUMP JUMPDEST PUSH2 0x55C SWAP2 SWAP1 PUSH2 0x13BB JUMP JUMPDEST PUSH1 0x2 SLOAD PUSH1 0x40 MLOAD PUSH4 0xF8B2CB4F PUSH1 0xE0 SHL DUP2 MSTORE PUSH1 0x1 PUSH1 0x1 PUSH1 0xA0 SHL SUB DUP6 DUP2 AND PUSH1 0x4 DUP4 ADD MSTORE SWAP3 SWAP4 POP PUSH1 0x0 SWAP3 SWAP1 SWAP2 AND SWAP1 PUSH4 0xF8B2CB4F SWAP1 PUSH1 0x24 ADD PUSH1 0x20 PUSH1 0x40 MLOAD DUP1 DUP4 SUB DUP2 DUP7 GAS STATICCALL ISZERO DUP1 ISZERO PUSH2 0x5AC JUMPI RETURNDATASIZE PUSH1 0x0 DUP1 RETURNDATACOPY RETURNDATASIZE PUSH1 0x0 REVERT JUMPDEST POP POP POP POP PUSH1 0x40 MLOAD RETURNDATASIZE PUSH1 0x1F NOT PUSH1 0x1F DUP3 ADD AND DUP3 ADD DUP1 PUSH1 0x40 MSTORE POP DUP2 ADD SWAP1 PUSH2 0x5D0 SWAP2 SWAP1 PUSH2 0x13DD JUMP JUMPDEST SWAP1 POP DUP2 DUP2 LT ISZERO PUSH2 0x5FD JUMPI PUSH1 0x40 MLOAD PUSH4 0xA17E11D5 PUSH1 0xE0 SHL DUP2 MSTORE PUSH1 0x4 DUP2 ADD DUP4 SWAP1 MSTORE PUSH1 0x24 DUP2 ADD DUP3 SWAP1 MSTORE PUSH1 0x44 ADD PUSH2 0x43D JUMP JUMPDEST PUSH1 0x3 DUP1 SLOAD PUSH1 0x0 SWAP2 DUP3 PUSH2 0x60E DUP4 PUSH2 0x13F6 JUMP JUMPDEST SWAP1 SWAP2 SSTORE POP SWAP1 POP PUSH1 0x0 PUSH2 0x620 DUP8 TIMESTAMP PUSH2 0x140F JUMP JUMPDEST SWAP1 POP PUSH1 0x40 MLOAD DUP1 PUSH2 0x100 ADD PUSH1 0x40 MSTORE DUP1 CALLER PUSH1 0x1 PUSH1 0x1 PUSH1 0xA0 SHL SUB AND DUP2 MSTORE PUSH1 0x20 ADD DUP13 DUP13 DUP1 DUP1 PUSH1 0x1F ADD PUSH1 0x20 DUP1 SWAP2 DIV MUL PUSH1 0x20 ADD PUSH1 0x40 MLOAD SWAP1 DUP2 ADD PUSH1 0x40 MSTORE DUP1 SWAP4 SWAP3 SWAP2 SWAP1 DUP2 DUP2 MSTORE PUSH1 0x20 ADD DUP4 DUP4 DUP1 DUP3 DUP5 CALLDATACOPY PUSH1 0x0 SWAP3 ADD DUP3 SWAP1 MSTORE POP SWAP4 DUP6 MSTORE POP POP POP PUSH1 0x20 DUP3 ADD DUP13 SWAP1 MSTORE DUP11 ISZERO ISZERO PUSH1 0x40 DUP4 ADD MSTORE CALLVALUE PUSH1 0x60 DUP4 ADD MSTORE PUSH1 0x80 DUP3 ADD DUP10 SWAP1 MSTORE PUSH1 0xA0 DUP3 ADD DUP5 SWAP1 MSTORE PUSH1 0xC0 SWAP1 SWAP2 ADD MSTORE PUSH1 0x0 DUP4 DUP2 MSTORE PUSH1 0x4 PUSH1 0x20 SWAP1 DUP2 MSTORE PUSH1 0x40 SWAP1 SWAP2 KECCAK256 DUP3 MLOAD DUP2 SLOAD PUSH1 0x1 PUSH1 0x1 PUSH1 0xA0 SHL SUB NOT AND PUSH1 0x1 PUSH1 0x1 PUSH1 0xA0 SHL SUB SWAP1 SWAP2 AND OR DUP2 SSTORE SWAP1 DUP3 ADD MLOAD PUSH1 0x1 DUP3 ADD SWAP1 PUSH2 0x6DE SWAP1 DUP3 PUSH2 0x14A7 JUMP JUMPDEST POP PUSH1 0x40 DUP3 ADD MLOAD PUSH1 0x2 DUP1 DUP4 ADD SWAP2 SWAP1 SWAP2 SSTORE PUSH1 0x60 DUP4 ADD MLOAD PUSH1 0x3 DUP4 ADD DUP1 SLOAD SWAP2 ISZERO ISZERO PUSH1 0xFF NOT SWAP3 DUP4 AND OR SWAP1 SSTORE PUSH1 0x80 DUP5 ADD MLOAD PUSH1 0x4 DUP5 ADD SSTORE PUSH1 0xA0 DUP5 ADD MLOAD PUSH1 0x5 DUP5 ADD SSTORE PUSH1 0xC0 DUP5 ADD MLOAD PUSH1 0x6 DUP5 ADD SSTORE PUSH1 0xE0 DUP5 ADD MLOAD PUSH1 0x7 DUP5 ADD DUP1 SLOAD SWAP2 SWAP4 SWAP1 SWAP3 SWAP2 SWAP1 SWAP2 AND SWAP1 PUSH1 0x1 SWAP1 DUP5 SWAP1 DUP2 GT ISZERO PUSH2 0x74A JUMPI PUSH2 0x74A PUSH2 0x11A0 JUMP JUMPDEST MUL OR SWAP1 SSTORE POP SWAP1 POP POP CALLER PUSH1 0x1 PUSH1 0x1 PUSH1 0xA0 SHL SUB AND DUP3 PUSH32 0x13A0D3F6B937EA5FEFAC2C0E489EBC86D4939E182DB7F677910A75A036D2461A DUP14 DUP14 DUP14 DUP14 CALLVALUE DUP14 DUP10 PUSH1 0x40 MLOAD PUSH2 0x798 SWAP8 SWAP7 SWAP6 SWAP5 SWAP4 SWAP3 SWAP2 SWAP1 PUSH2 0x1567 JUMP JUMPDEST PUSH1 0x40 MLOAD DUP1 SWAP2 SUB SWAP1 LOG3 POP POP POP POP POP PUSH2 0x7BC PUSH1 0x1 PUSH1 0x0 DUP1 MLOAD PUSH1 0x20 PUSH2 0x16E1 DUP4 CODECOPY DUP2 MLOAD SWAP2 MSTORE SSTORE JUMP JUMPDEST POP POP POP POP POP POP JUMP JUMPDEST PUSH2 0x7CC PUSH2 0xB0B JUMP JUMPDEST PUSH2 0x7D4 PUSH2 0xB38 JUMP JUMPDEST PUSH1 0x40 MLOAD PUSH1 0x0 DUP2 MSTORE PUSH32 0xDA88B5DFAAC55549D4DDDDD43A09D4B911233DF354952EBC9AC2041AA1853436 SWAP1 PUSH1 0x20 ADD JUMPDEST PUSH1 0x40 MLOAD DUP1 SWAP2 SUB SWAP1 LOG1 JUMP JUMPDEST PUSH2 0x813 PUSH2 0xB0B JUMP JUMPDEST PUSH2 0x81D PUSH1 0x0 PUSH2 0xB88 JUMP JUMPDEST JUMP JUMPDEST DUP1 PUSH1 0x0 JUMPDEST DUP2 DUP2 LT ISZERO PUSH2 0x89C JUMPI ADDRESS PUSH4 0xB50E801D DUP6 DUP6 DUP5 DUP2 DUP2 LT PUSH2 0x843 JUMPI PUSH2 0x843 PUSH2 0x15A5 JUMP JUMPDEST SWAP1 POP PUSH1 0x20 MUL ADD CALLDATALOAD PUSH1 0x40 MLOAD DUP3 PUSH4 0xFFFFFFFF AND PUSH1 0xE0 SHL DUP2 MSTORE PUSH1 0x4 ADD PUSH2 0x868 SWAP2 DUP2 MSTORE PUSH1 0x20 ADD SWAP1 JUMP JUMPDEST PUSH1 0x0 PUSH1 0x40 MLOAD DUP1 DUP4 SUB DUP2 PUSH1 0x0 DUP8 DUP1 EXTCODESIZE ISZERO DUP1 ISZERO PUSH2 0x882 JUMPI PUSH1 0x0 DUP1 REVERT JUMPDEST POP GAS CALL SWAP3 POP POP POP DUP1 ISZERO PUSH2 0x893 JUMPI POP PUSH1 0x1 JUMPDEST POP PUSH1 0x1 ADD PUSH2 0x823 JUMP JUMPDEST POP POP POP POP JUMP JUMPDEST PUSH2 0x8AA PUSH2 0xB0B JUMP JUMPDEST PUSH2 0x8B2 PUSH2 0xBD8 JUMP JUMPDEST PUSH1 0x40 MLOAD PUSH1 0x1 DUP2 MSTORE PUSH32 0xDA88B5DFAAC55549D4DDDDD43A09D4B911233DF354952EBC9AC2041AA1853436 SWAP1 PUSH1 0x20 ADD PUSH2 0x801 JUMP JUMPDEST PUSH1 0x4 PUSH1 0x20 MSTORE PUSH1 0x0 SWAP1 DUP2 MSTORE PUSH1 0x40 SWAP1 KECCAK256 DUP1 SLOAD PUSH1 0x1 DUP3 ADD DUP1 SLOAD PUSH1 0x1 PUSH1 0x1 PUSH1 0xA0 SHL SUB SWAP1 SWAP3 AND SWAP3 SWAP2 PUSH2 0x90F SWAP1 PUSH2 0x1422 JUMP JUMPDEST DUP1 PUSH1 0x1F ADD PUSH1 0x20 DUP1 SWAP2 DIV MUL PUSH1 0x20 ADD PUSH1 0x40 MLOAD SWAP1 DUP2 ADD PUSH1 0x40 MSTORE DUP1 SWAP3 SWAP2 SWAP1 DUP2 DUP2 MSTORE PUSH1 0x20 ADD DUP3 DUP1 SLOAD PUSH2 0x93B SWAP1 PUSH2 0x1422 JUMP JUMPDEST DUP1 ISZERO PUSH2 0x988 JUMPI DUP1 PUSH1 0x1F LT PUSH2 0x95D JUMPI PUSH2 0x100 DUP1 DUP4 SLOAD DIV MUL DUP4 MSTORE SWAP2 PUSH1 0x20 ADD SWAP2 PUSH2 0x988 JUMP JUMPDEST DUP3 ADD SWAP2 SWAP1 PUSH1 0x0 MSTORE PUSH1 0x20 PUSH1 0x0 KECCAK256 SWAP1 JUMPDEST DUP2 SLOAD DUP2 MSTORE SWAP1 PUSH1 0x1 ADD SWAP1 PUSH1 0x20 ADD DUP1 DUP4 GT PUSH2 0x96B JUMPI DUP3 SWAP1 SUB PUSH1 0x1F AND DUP3 ADD SWAP2 JUMPDEST POP POP POP PUSH1 0x2 DUP5 ADD SLOAD PUSH1 0x3 DUP6 ADD SLOAD PUSH1 0x4 DUP7 ADD SLOAD PUSH1 0x5 DUP8 ADD SLOAD PUSH1 0x6 DUP9 ADD SLOAD PUSH1 0x7 SWAP1 SWAP9 ADD SLOAD SWAP7 SWAP8 SWAP4 SWAP7 PUSH1 0xFF SWAP4 DUP5 AND SWAP7 POP SWAP2 SWAP5 POP SWAP3 SWAP2 AND DUP9 JUMP JUMPDEST PUSH2 0x9C6 PUSH2 0xB0B JUMP JUMPDEST DUP1 PUSH1 0x5 DUP5 DUP5 PUSH1 0x40 MLOAD PUSH2 0x9D9 SWAP3 SWAP2 SWAP1 PUSH2 0x130D JUMP JUMPDEST SWAP1 DUP2 MSTORE PUSH1 0x40 MLOAD SWAP1 DUP2 SWAP1 SUB PUSH1 0x20 ADD DUP2 KECCAK256 DUP1 SLOAD PUSH1 0x1 PUSH1 0x1 PUSH1 0xA0 SHL SUB SWAP4 SWAP1 SWAP4 AND PUSH1 0x1 PUSH1 0x1 PUSH1 0xA0 SHL SUB NOT SWAP1 SWAP4 AND SWAP3 SWAP1 SWAP3 OR SWAP1 SWAP2 SSTORE PUSH2 0xA16 SWAP1 DUP5 SWAP1 DUP5 SWAP1 PUSH2 0x130D JUMP JUMPDEST PUSH1 0x40 MLOAD SWAP1 DUP2 SWAP1 SUB DUP2 KECCAK256 PUSH1 0x1 PUSH1 0x1 PUSH1 0xA0 SHL SUB DUP4 AND DUP3 MSTORE SWAP1 PUSH32 0x77780D19D6F850EC861D508F6035068D0B68FB9D334887C55393910E9B2951EA SWAP1 PUSH1 0x20 ADD PUSH1 0x40 MLOAD DUP1 SWAP2 SUB SWAP1 LOG2 POP POP POP JUMP JUMPDEST PUSH2 0xA66 PUSH2 0xAEF JUMP JUMPDEST PUSH2 0xA6F DUP2 PUSH2 0xC1B JUMP JUMPDEST PUSH2 0xA86 PUSH1 0x1 PUSH1 0x0 DUP1 MLOAD PUSH1 0x20 PUSH2 0x16E1 DUP4 CODECOPY DUP2 MLOAD SWAP2 MSTORE SSTORE JUMP JUMPDEST POP JUMP JUMPDEST PUSH2 0xA91 PUSH2 0xB0B JUMP JUMPDEST PUSH1 0x1 PUSH1 0x1 PUSH1 0xA0 SHL SUB DUP2 AND PUSH2 0xABB JUMPI PUSH1 0x40 MLOAD PUSH4 0x1E4FBDF7 PUSH1 0xE0 SHL DUP2 MSTORE PUSH1 0x0 PUSH1 0x4 DUP3 ADD MSTORE PUSH1 0x24 ADD PUSH2 0x43D JUMP JUMPDEST PUSH2 0xA86 DUP2 PUSH2 0xB88 JUMP JUMPDEST PUSH1 0x0 SLOAD PUSH1 0x1 PUSH1 0xA0 SHL SWAP1 DIV PUSH1 0xFF AND ISZERO PUSH2 0x81D JUMPI PUSH1 0x40 MLOAD PUSH4 0xD93C0665 PUSH1 0xE0 SHL DUP2 MSTORE PUSH1 0x4 ADD PUSH1 0x40 MLOAD DUP1 SWAP2 SUB SWAP1 REVERT JUMPDEST PUSH2 0xAF7 PUSH2 0xF04 JUMP JUMPDEST PUSH1 0x2 PUSH1 0x0 DUP1 MLOAD PUSH1 0x20 PUSH2 0x16E1 DUP4 CODECOPY DUP2 MLOAD SWAP2 MSTORE SSTORE JUMP JUMPDEST PUSH1 0x0 SLOAD PUSH1 0x1 PUSH1 0x1 PUSH1 0xA0 SHL SUB AND CALLER EQ PUSH2 0x81D JUMPI PUSH1 0x40 MLOAD PUSH4 0x118CDAA7 PUSH1 0xE0 SHL DUP2 MSTORE CALLER PUSH1 0x4 DUP3 ADD MSTORE PUSH1 0x24 ADD PUSH2 0x43D JUMP JUMPDEST PUSH2 0xB40 PUSH2 0xF34 JUMP JUMPDEST PUSH1 0x0 DUP1 SLOAD PUSH1 0xFF PUSH1 0xA0 SHL NOT AND SWAP1 SSTORE PUSH32 0x5DB9EE0A495BF2E6FF9C91A7834C1BA4FDD244A5E8AA4E537BD38AEAE4B073AA CALLER JUMPDEST PUSH1 0x40 MLOAD PUSH1 0x1 PUSH1 0x1 PUSH1 0xA0 SHL SUB SWAP1 SWAP2 AND DUP2 MSTORE PUSH1 0x20 ADD PUSH2 0x801 JUMP JUMPDEST PUSH1 0x0 DUP1 SLOAD PUSH1 0x1 PUSH1 0x1 PUSH1 0xA0 SHL SUB DUP4 DUP2 AND PUSH1 0x1 PUSH1 0x1 PUSH1 0xA0 SHL SUB NOT DUP4 AND DUP2 OR DUP5 SSTORE PUSH1 0x40 MLOAD SWAP2 SWAP1 SWAP3 AND SWAP3 DUP4 SWAP2 PUSH32 0x8BE0079C531659141344CD1FD0A4F28419497F9722A3DAAFE3B4186F6B6457E0 SWAP2 SWAP1 LOG3 POP POP JUMP JUMPDEST PUSH2 0xBE0 PUSH2 0xAC4 JUMP JUMPDEST PUSH1 0x0 DUP1 SLOAD PUSH1 0xFF PUSH1 0xA0 SHL NOT AND PUSH1 0x1 PUSH1 0xA0 SHL OR SWAP1 SSTORE PUSH32 0x62E78CEA01BEE320CD4E420270B5EA74000D11B0C9F74754EBDBFC544B05A258 PUSH2 0xB70 CALLER SWAP1 JUMP JUMPDEST PUSH1 0x0 DUP2 DUP2 MSTORE PUSH1 0x4 PUSH1 0x20 MSTORE PUSH1 0x40 DUP2 KECCAK256 SWAP1 PUSH1 0x7 DUP3 ADD SLOAD PUSH1 0xFF AND PUSH1 0x2 DUP2 GT ISZERO PUSH2 0xC43 JUMPI PUSH2 0xC43 PUSH2 0x11A0 JUMP JUMPDEST EQ PUSH2 0xC88 JUMPI PUSH1 0x7 DUP2 ADD SLOAD DUP3 SWAP1 PUSH1 0xFF AND PUSH1 0x2 DUP2 GT ISZERO PUSH2 0xC63 JUMPI PUSH2 0xC63 PUSH2 0x11A0 JUMP JUMPDEST PUSH1 0x40 MLOAD PUSH4 0xA78AAD3 PUSH1 0xE4 SHL DUP2 MSTORE PUSH1 0x4 DUP2 ADD SWAP3 SWAP1 SWAP3 MSTORE PUSH1 0xFF AND PUSH1 0x24 DUP3 ADD MSTORE PUSH1 0x44 ADD PUSH2 0x43D JUMP JUMPDEST PUSH1 0x0 DUP3 DUP2 MSTORE PUSH1 0x7 PUSH1 0x20 MSTORE PUSH1 0x40 SWAP1 KECCAK256 SLOAD PUSH1 0xFF AND ISZERO PUSH2 0xCBB JUMPI PUSH1 0x40 MLOAD PUSH4 0x47F629AF PUSH1 0xE1 SHL DUP2 MSTORE PUSH1 0x4 DUP2 ADD DUP4 SWAP1 MSTORE PUSH1 0x24 ADD PUSH2 0x43D JUMP JUMPDEST PUSH1 0x0 DUP3 DUP2 MSTORE PUSH1 0x7 PUSH1 0x20 MSTORE PUSH1 0x40 DUP1 DUP3 KECCAK256 DUP1 SLOAD PUSH1 0xFF NOT AND PUSH1 0x1 SWAP1 DUP2 OR SWAP1 SWAP2 SSTORE DUP1 SLOAD SWAP2 MLOAD PUSH4 0xF66A1B71 PUSH1 0xE0 SHL DUP2 MSTORE PUSH1 0x1 PUSH1 0x1 PUSH1 0xA0 SHL SUB SWAP1 SWAP3 AND SWAP2 PUSH4 0xF66A1B71 SWAP2 PUSH2 0xD08 SWAP2 SWAP1 DUP7 ADD SWAP1 PUSH1 0x4 ADD PUSH2 0x15BB JUMP JUMPDEST PUSH1 0x40 DUP1 MLOAD DUP1 DUP4 SUB DUP2 DUP7 GAS STATICCALL SWAP3 POP POP POP DUP1 ISZERO PUSH2 0xD40 JUMPI POP PUSH1 0x40 DUP1 MLOAD PUSH1 0x1F RETURNDATASIZE SWAP1 DUP2 ADD PUSH1 0x1F NOT AND DUP3 ADD SWAP1 SWAP3 MSTORE PUSH2 0xD3D SWAP2 DUP2 ADD SWAP1 PUSH2 0x1646 JUMP JUMPDEST PUSH1 0x1 JUMPDEST PUSH2 0xD78 JUMPI PUSH1 0x0 DUP4 DUP2 MSTORE PUSH1 0x7 PUSH1 0x20 MSTORE PUSH1 0x40 SWAP1 DUP2 SWAP1 KECCAK256 DUP1 SLOAD PUSH1 0xFF NOT AND SWAP1 SSTORE MLOAD PUSH4 0xD0CDBFC7 PUSH1 0xE0 SHL DUP2 MSTORE PUSH2 0x43D SWAP1 PUSH1 0x1 DUP5 ADD SWAP1 PUSH1 0x4 ADD PUSH2 0x15BB JUMP JUMPDEST POP SWAP1 POP PUSH1 0x0 PUSH2 0xD87 DUP4 DUP4 PUSH2 0xF5E JUMP JUMPDEST SWAP1 POP DUP1 ISZERO PUSH2 0xEAB JUMPI PUSH1 0x7 DUP4 ADD DUP1 SLOAD PUSH1 0xFF NOT AND PUSH1 0x1 OR SWAP1 SSTORE PUSH1 0x5 DUP4 ADD SLOAD PUSH1 0x4 DUP5 ADD SLOAD PUSH1 0x0 SWAP2 PUSH2 0x2710 SWAP2 PUSH2 0xDB9 SWAP2 SWAP1 PUSH2 0x13A4 JUMP JUMPDEST PUSH2 0xDC3 SWAP2 SWAP1 PUSH2 0x13BB JUMP JUMPDEST PUSH1 0x2 SLOAD PUSH1 0x40 MLOAD SWAP2 SWAP3 POP PUSH1 0x1 PUSH1 0x1 PUSH1 0xA0 SHL SUB AND SWAP1 PUSH4 0x20F801D4 SWAP1 PUSH1 0x5 SWAP1 PUSH2 0xDED SWAP1 PUSH1 0x1 DUP10 ADD SWAP1 PUSH2 0x166A JUMP JUMPDEST SWAP1 DUP2 MSTORE PUSH1 0x40 MLOAD SWAP1 DUP2 SWAP1 SUB PUSH1 0x20 ADD DUP2 KECCAK256 SLOAD DUP8 SLOAD PUSH1 0x1 PUSH1 0x1 PUSH1 0xE0 SHL SUB NOT PUSH1 0xE0 DUP6 SWAP1 SHL AND DUP4 MSTORE PUSH1 0x1 PUSH1 0x1 PUSH1 0xA0 SHL SUB SWAP2 DUP3 AND PUSH1 0x4 DUP5 ADD MSTORE AND PUSH1 0x24 DUP3 ADD MSTORE PUSH1 0x44 DUP2 ADD DUP5 SWAP1 MSTORE PUSH1 0x64 ADD PUSH1 0x0 PUSH1 0x40 MLOAD DUP1 DUP4 SUB DUP2 PUSH1 0x0 DUP8 DUP1 EXTCODESIZE ISZERO DUP1 ISZERO PUSH2 0xE4A JUMPI PUSH1 0x0 DUP1 REVERT JUMPDEST POP GAS CALL ISZERO DUP1 ISZERO PUSH2 0xE5E JUMPI RETURNDATASIZE PUSH1 0x0 DUP1 RETURNDATACOPY RETURNDATASIZE PUSH1 0x0 REVERT JUMPDEST POP POP DUP6 SLOAD PUSH1 0x40 MLOAD DUP5 DUP2 MSTORE PUSH1 0x1 PUSH1 0x1 PUSH1 0xA0 SHL SUB SWAP1 SWAP2 AND SWAP3 POP DUP8 SWAP2 POP PUSH32 0x3417499C22576A96A6FB7D02B8D63E7D1F4F94AF0F25B52A930BBDDFDFCF5764 SWAP1 PUSH1 0x20 ADD PUSH1 0x40 MLOAD DUP1 SWAP2 SUB SWAP1 LOG3 POP PUSH2 0x89C JUMP JUMPDEST DUP3 PUSH1 0x6 ADD SLOAD TIMESTAMP LT PUSH2 0x89C JUMPI PUSH1 0x7 DUP4 ADD DUP1 SLOAD PUSH1 0xFF NOT AND PUSH1 0x2 OR SWAP1 SSTORE DUP3 SLOAD PUSH1 0x40 MLOAD PUSH1 0x1 PUSH1 0x1 PUSH1 0xA0 SHL SUB SWAP1 SWAP2 AND SWAP1 DUP6 SWAP1 PUSH32 0xAD69E57C5FBFF40D58BA1A08B2EF5774B250C5D0F39DFE66F6AD9C3503BD1CF6 SWAP1 PUSH1 0x0 SWAP1 LOG3 POP POP POP POP JUMP JUMPDEST PUSH1 0x0 DUP1 MLOAD PUSH1 0x20 PUSH2 0x16E1 DUP4 CODECOPY DUP2 MLOAD SWAP2 MSTORE SLOAD PUSH1 0x2 SUB PUSH2 0x81D JUMPI PUSH1 0x40 MLOAD PUSH4 0x3EE5AEB5 PUSH1 0xE0 SHL DUP2 MSTORE PUSH1 0x4 ADD PUSH1 0x40 MLOAD DUP1 SWAP2 SUB SWAP1 REVERT JUMPDEST PUSH1 0x0 SLOAD PUSH1 0x1 PUSH1 0xA0 SHL SWAP1 DIV PUSH1 0xFF AND PUSH2 0x81D JUMPI PUSH1 0x40 MLOAD PUSH4 0x8DFC202B PUSH1 0xE0 SHL DUP2 MSTORE PUSH1 0x4 ADD PUSH1 0x40 MLOAD DUP1 SWAP2 SUB SWAP1 REVERT JUMPDEST PUSH1 0x3 DUP3 ADD SLOAD PUSH1 0x0 SWAP1 PUSH1 0xFF AND ISZERO PUSH2 0xF7C JUMPI POP PUSH1 0x2 DUP3 ADD SLOAD DUP2 SLT ISZERO PUSH2 0xF86 JUMP JUMPDEST POP PUSH1 0x2 DUP3 ADD SLOAD DUP2 SGT ISZERO JUMPDEST SWAP3 SWAP2 POP POP JUMP JUMPDEST PUSH1 0x0 DUP1 DUP4 PUSH1 0x1F DUP5 ADD SLT PUSH2 0xF9E JUMPI PUSH1 0x0 DUP1 REVERT JUMPDEST POP DUP2 CALLDATALOAD PUSH8 0xFFFFFFFFFFFFFFFF DUP2 GT ISZERO PUSH2 0xFB6 JUMPI PUSH1 0x0 DUP1 REVERT JUMPDEST PUSH1 0x20 DUP4 ADD SWAP2 POP DUP4 PUSH1 0x20 DUP3 DUP6 ADD ADD GT ISZERO PUSH2 0xFCE JUMPI PUSH1 0x0 DUP1 REVERT JUMPDEST SWAP3 POP SWAP3 SWAP1 POP JUMP JUMPDEST PUSH1 0x0 DUP1 PUSH1 0x0 DUP1 PUSH1 0x0 DUP1 PUSH1 0xA0 DUP8 DUP10 SUB SLT ISZERO PUSH2 0xFEE JUMPI PUSH1 0x0 DUP1 REVERT JUMPDEST DUP7 CALLDATALOAD PUSH8 0xFFFFFFFFFFFFFFFF DUP2 GT ISZERO PUSH2 0x1005 JUMPI PUSH1 0x0 DUP1 REVERT JUMPDEST PUSH2 0x1011 DUP10 DUP3 DUP11 ADD PUSH2 0xF8C JUMP JUMPDEST SWAP1 SWAP8 POP SWAP6 POP POP PUSH1 0x20 DUP8 ADD CALLDATALOAD SWAP4 POP PUSH1 0x40 DUP8 ADD CALLDATALOAD DUP1 ISZERO ISZERO DUP2 EQ PUSH2 0x1031 JUMPI PUSH1 0x0 DUP1 REVERT JUMPDEST SWAP6 SWAP9 SWAP5 SWAP8 POP SWAP3 SWAP6 PUSH1 0x60 DUP2 ADD CALLDATALOAD SWAP5 PUSH1 0x80 SWAP1 SWAP2 ADD CALLDATALOAD SWAP4 POP SWAP2 POP POP JUMP JUMPDEST PUSH1 0x0 PUSH1 0x20 DUP3 DUP5 SUB SLT ISZERO PUSH2 0x105D JUMPI PUSH1 0x0 DUP1 REVERT JUMPDEST POP CALLDATALOAD SWAP2 SWAP1 POP JUMP JUMPDEST PUSH4 0x4E487B71 PUSH1 0xE0 SHL PUSH1 0x0 MSTORE PUSH1 0x41 PUSH1 0x4 MSTORE PUSH1 0x24 PUSH1 0x0 REVERT JUMPDEST PUSH1 0x0 PUSH1 0x20 DUP3 DUP5 SUB SLT ISZERO PUSH2 0x108C JUMPI PUSH1 0x0 DUP1 REVERT JUMPDEST DUP2 CALLDATALOAD PUSH8 0xFFFFFFFFFFFFFFFF DUP1 DUP3 GT ISZERO PUSH2 0x10A4 JUMPI PUSH1 0x0 DUP1 REVERT JUMPDEST DUP2 DUP5 ADD SWAP2 POP DUP5 PUSH1 0x1F DUP4 ADD SLT PUSH2 0x10B8 JUMPI PUSH1 0x0 DUP1 REVERT JUMPDEST DUP2 CALLDATALOAD DUP2 DUP2 GT ISZERO PUSH2 0x10CA JUMPI PUSH2 0x10CA PUSH2 0x1064 JUMP JUMPDEST PUSH1 0x40 MLOAD PUSH1 0x1F DUP3 ADD PUSH1 0x1F NOT SWAP1 DUP2 AND PUSH1 0x3F ADD AND DUP2 ADD SWAP1 DUP4 DUP3 GT DUP2 DUP4 LT OR ISZERO PUSH2 0x10F2 JUMPI PUSH2 0x10F2 PUSH2 0x1064 JUMP JUMPDEST DUP2 PUSH1 0x40 MSTORE DUP3 DUP2 MSTORE DUP8 PUSH1 0x20 DUP5 DUP8 ADD ADD GT ISZERO PUSH2 0x110B JUMPI PUSH1 0x0 DUP1 REVERT JUMPDEST DUP3 PUSH1 0x20 DUP7 ADD PUSH1 0x20 DUP4 ADD CALLDATACOPY PUSH1 0x0 SWAP3 DUP2 ADD PUSH1 0x20 ADD SWAP3 SWAP1 SWAP3 MSTORE POP SWAP6 SWAP5 POP POP POP POP POP JUMP JUMPDEST PUSH1 0x0 DUP1 PUSH1 0x20 DUP4 DUP6 SUB SLT ISZERO PUSH2 0x113E JUMPI PUSH1 0x0 DUP1 REVERT JUMPDEST DUP3 CALLDATALOAD PUSH8 0xFFFFFFFFFFFFFFFF DUP1 DUP3 GT ISZERO PUSH2 0x1156 JUMPI PUSH1 0x0 DUP1 REVERT JUMPDEST DUP2 DUP6 ADD SWAP2 POP DUP6 PUSH1 0x1F DUP4 ADD SLT PUSH2 0x116A JUMPI PUSH1 0x0 DUP1 REVERT JUMPDEST DUP2 CALLDATALOAD DUP2 DUP2 GT ISZERO PUSH2 0x1179 JUMPI PUSH1 0x0 DUP1 REVERT JUMPDEST DUP7 PUSH1 0x20 DUP3 PUSH1 0x5 SHL DUP6 ADD ADD GT ISZERO PUSH2 0x118E JUMPI PUSH1 0x0 DUP1 REVERT JUMPDEST PUSH1 0x20 SWAP3 SWAP1 SWAP3 ADD SWAP7 SWAP2 SWAP6 POP SWAP1 SWAP4 POP POP POP POP JUMP JUMPDEST PUSH4 0x4E487B71 PUSH1 0xE0 SHL PUSH1 0x0 MSTORE PUSH1 0x21 PUSH1 0x4 MSTORE PUSH1 0x24 PUSH1 0x0 REVERT JUMPDEST PUSH1 0x3 DUP2 LT PUSH2 0x11D4 JUMPI PUSH4 0x4E487B71 PUSH1 0xE0 SHL PUSH1 0x0 MSTORE PUSH1 0x21 PUSH1 0x4 MSTORE PUSH1 0x24 PUSH1 0x0 REVERT JUMPDEST SWAP1 MSTORE JUMP JUMPDEST PUSH1 0x1 PUSH1 0x1 PUSH1 0xA0 SHL SUB DUP10 AND DUP2 MSTORE PUSH2 0x100 PUSH1 0x20 DUP1 DUP4 ADD DUP3 SWAP1 MSTORE DUP10 MLOAD SWAP2 DUP4 ADD DUP3 SWAP1 MSTORE PUSH1 0x0 SWAP2 DUP3 SWAP2 SWAP1 JUMPDEST DUP1 DUP4 LT ISZERO PUSH2 0x121D JUMPI DUP12 DUP4 ADD DUP3 ADD MLOAD DUP6 DUP5 ADD PUSH2 0x120 ADD MSTORE SWAP2 DUP2 ADD SWAP2 PUSH2 0x11FE JUMP JUMPDEST PUSH2 0x120 SWAP3 POP PUSH1 0x0 DUP4 DUP3 DUP8 ADD ADD MSTORE DUP3 PUSH1 0x1F NOT PUSH1 0x1F DUP4 ADD AND DUP7 ADD ADD SWAP4 POP POP POP POP DUP8 PUSH1 0x40 DUP4 ADD MSTORE PUSH2 0x124F PUSH1 0x60 DUP4 ADD DUP9 ISZERO ISZERO SWAP1 MSTORE JUMP JUMPDEST DUP6 PUSH1 0x80 DUP4 ADD MSTORE DUP5 PUSH1 0xA0 DUP4 ADD MSTORE DUP4 PUSH1 0xC0 DUP4 ADD MSTORE PUSH2 0x126E PUSH1 0xE0 DUP4 ADD DUP5 PUSH2 0x11B6 JUMP JUMPDEST SWAP10 SWAP9 POP POP POP POP POP POP POP POP POP JUMP JUMPDEST DUP1 CALLDATALOAD PUSH1 0x1 PUSH1 0x1 PUSH1 0xA0 SHL SUB DUP2 AND DUP2 EQ PUSH2 0x1292 JUMPI PUSH1 0x0 DUP1 REVERT JUMPDEST SWAP2 SWAP1 POP JUMP JUMPDEST PUSH1 0x0 DUP1 PUSH1 0x0 PUSH1 0x40 DUP5 DUP7 SUB SLT ISZERO PUSH2 0x12AC JUMPI PUSH1 0x0 DUP1 REVERT JUMPDEST DUP4 CALLDATALOAD PUSH8 0xFFFFFFFFFFFFFFFF DUP2 GT ISZERO PUSH2 0x12C3 JUMPI PUSH1 0x0 DUP1 REVERT JUMPDEST PUSH2 0x12CF DUP7 DUP3 DUP8 ADD PUSH2 0xF8C JUMP JUMPDEST SWAP1 SWAP5 POP SWAP3 POP PUSH2 0x12E2 SWAP1 POP PUSH1 0x20 DUP6 ADD PUSH2 0x127B JUMP JUMPDEST SWAP1 POP SWAP3 POP SWAP3 POP SWAP3 JUMP JUMPDEST PUSH1 0x0 PUSH1 0x20 DUP3 DUP5 SUB SLT ISZERO PUSH2 0x12FD JUMPI PUSH1 0x0 DUP1 REVERT JUMPDEST PUSH2 0x1306 DUP3 PUSH2 0x127B JUMP JUMPDEST SWAP4 SWAP3 POP POP POP JUMP JUMPDEST DUP2 DUP4 DUP3 CALLDATACOPY PUSH1 0x0 SWAP2 ADD SWAP1 DUP2 MSTORE SWAP2 SWAP1 POP JUMP JUMPDEST DUP2 DUP4 MSTORE DUP2 DUP2 PUSH1 0x20 DUP6 ADD CALLDATACOPY POP PUSH1 0x0 DUP3 DUP3 ADD PUSH1 0x20 SWAP1 DUP2 ADD SWAP2 SWAP1 SWAP2 MSTORE PUSH1 0x1F SWAP1 SWAP2 ADD PUSH1 0x1F NOT AND SWAP1 SWAP2 ADD ADD SWAP1 JUMP JUMPDEST PUSH1 0x20 DUP2 MSTORE PUSH1 0x0 PUSH2 0x135A PUSH1 0x20 DUP4 ADD DUP5 DUP7 PUSH2 0x131D JUMP JUMPDEST SWAP5 SWAP4 POP POP POP POP JUMP JUMPDEST PUSH1 0x40 DUP2 MSTORE PUSH1 0x0 PUSH2 0x1376 PUSH1 0x40 DUP4 ADD DUP6 DUP8 PUSH2 0x131D JUMP JUMPDEST SWAP1 POP PUSH1 0x1 DUP1 PUSH1 0xA0 SHL SUB DUP4 AND PUSH1 0x20 DUP4 ADD MSTORE SWAP5 SWAP4 POP POP POP POP JUMP JUMPDEST PUSH4 0x4E487B71 PUSH1 0xE0 SHL PUSH1 0x0 MSTORE PUSH1 0x11 PUSH1 0x4 MSTORE PUSH1 0x24 PUSH1 0x0 REVERT JUMPDEST DUP1 DUP3 MUL DUP2 ISZERO DUP3 DUP3 DIV DUP5 EQ OR PUSH2 0xF86 JUMPI PUSH2 0xF86 PUSH2 0x138E JUMP JUMPDEST PUSH1 0x0 DUP3 PUSH2 0x13D8 JUMPI PUSH4 0x4E487B71 PUSH1 0xE0 SHL PUSH1 0x0 MSTORE PUSH1 0x12 PUSH1 0x4 MSTORE PUSH1 0x24 PUSH1 0x0 REVERT JUMPDEST POP DIV SWAP1 JUMP JUMPDEST PUSH1 0x0 PUSH1 0x20 DUP3 DUP5 SUB SLT ISZERO PUSH2 0x13EF JUMPI PUSH1 0x0 DUP1 REVERT JUMPDEST POP MLOAD SWAP2 SWAP1 POP JUMP JUMPDEST PUSH1 0x0 PUSH1 0x1 DUP3 ADD PUSH2 0x1408 JUMPI PUSH2 0x1408 PUSH2 0x138E JUMP JUMPDEST POP PUSH1 0x1 ADD SWAP1 JUMP JUMPDEST DUP1 DUP3 ADD DUP1 DUP3 GT ISZERO PUSH2 0xF86 JUMPI PUSH2 0xF86 PUSH2 0x138E JUMP JUMPDEST PUSH1 0x1 DUP2 DUP2 SHR SWAP1 DUP3 AND DUP1 PUSH2 0x1436 JUMPI PUSH1 0x7F DUP3 AND SWAP2 POP JUMPDEST PUSH1 0x20 DUP3 LT DUP2 SUB PUSH2 0x1456 JUMPI PUSH4 0x4E487B71 PUSH1 0xE0 SHL PUSH1 0x0 MSTORE PUSH1 0x22 PUSH1 0x4 MSTORE PUSH1 0x24 PUSH1 0x0 REVERT JUMPDEST POP SWAP2 SWAP1 POP JUMP JUMPDEST PUSH1 0x1F DUP3 GT ISZERO PUSH2 0x14A2 JUMPI PUSH1 0x0 DUP2 DUP2 MSTORE PUSH1 0x20 DUP2 KECCAK256 PUSH1 0x1F DUP6 ADD PUSH1 0x5 SHR DUP2 ADD PUSH1 0x20 DUP7 LT ISZERO PUSH2 0x1483 JUMPI POP DUP1 JUMPDEST PUSH1 0x1F DUP6 ADD PUSH1 0x5 SHR DUP3 ADD SWAP2 POP JUMPDEST DUP2 DUP2 LT ISZERO PUSH2 0x7BC JUMPI DUP3 DUP2 SSTORE PUSH1 0x1 ADD PUSH2 0x148F JUMP JUMPDEST POP POP POP JUMP JUMPDEST DUP2 MLOAD PUSH8 0xFFFFFFFFFFFFFFFF DUP2 GT ISZERO PUSH2 0x14C1 JUMPI PUSH2 0x14C1 PUSH2 0x1064 JUMP JUMPDEST PUSH2 0x14D5 DUP2 PUSH2 0x14CF DUP5 SLOAD PUSH2 0x1422 JUMP JUMPDEST DUP5 PUSH2 0x145C JUMP JUMPDEST PUSH1 0x20 DUP1 PUSH1 0x1F DUP4 GT PUSH1 0x1 DUP2 EQ PUSH2 0x150A JUMPI PUSH1 0x0 DUP5 ISZERO PUSH2 0x14F2 JUMPI POP DUP6 DUP4 ADD MLOAD JUMPDEST PUSH1 0x0 NOT PUSH1 0x3 DUP7 SWAP1 SHL SHR NOT AND PUSH1 0x1 DUP6 SWAP1 SHL OR DUP6 SSTORE PUSH2 0x7BC JUMP JUMPDEST PUSH1 0x0 DUP6 DUP2 MSTORE PUSH1 0x20 DUP2 KECCAK256 PUSH1 0x1F NOT DUP7 AND SWAP2 JUMPDEST DUP3 DUP2 LT ISZERO PUSH2 0x1539 JUMPI DUP9 DUP7 ADD MLOAD DUP3 SSTORE SWAP5 DUP5 ADD SWAP5 PUSH1 0x1 SWAP1 SWAP2 ADD SWAP1 DUP5 ADD PUSH2 0x151A JUMP JUMPDEST POP DUP6 DUP3 LT ISZERO PUSH2 0x1557 JUMPI DUP8 DUP6 ADD MLOAD PUSH1 0x0 NOT PUSH1 0x3 DUP9 SWAP1 SHL PUSH1 0xF8 AND SHR NOT AND DUP2 SSTORE JUMPDEST POP POP POP POP POP PUSH1 0x1 SWAP1 DUP2 SHL ADD SWAP1 SSTORE POP JUMP JUMPDEST PUSH1 0xC0 DUP2 MSTORE PUSH1 0x0 PUSH2 0x157B PUSH1 0xC0 DUP4 ADD DUP10 DUP12 PUSH2 0x131D JUMP JUMPDEST PUSH1 0x20 DUP4 ADD SWAP8 SWAP1 SWAP8 MSTORE POP SWAP4 ISZERO ISZERO PUSH1 0x40 DUP6 ADD MSTORE PUSH1 0x60 DUP5 ADD SWAP3 SWAP1 SWAP3 MSTORE PUSH1 0x80 DUP4 ADD MSTORE PUSH1 0xA0 SWAP1 SWAP2 ADD MSTORE SWAP3 SWAP2 POP POP JUMP JUMPDEST PUSH4 0x4E487B71 PUSH1 0xE0 SHL PUSH1 0x0 MSTORE PUSH1 0x32 PUSH1 0x4 MSTORE PUSH1 0x24 PUSH1 0x0 REVERT JUMPDEST PUSH1 0x0 PUSH1 0x20 DUP1 DUP4 MSTORE PUSH1 0x0 DUP5 SLOAD PUSH2 0x15CF DUP2 PUSH2 0x1422 JUMP JUMPDEST DUP1 DUP5 DUP8 ADD MSTORE PUSH1 0x40 PUSH1 0x1 DUP1 DUP5 AND PUSH1 0x0 DUP2 EQ PUSH2 0x15F0 JUMPI PUSH1 0x1 DUP2 EQ PUSH2 0x160A JUMPI PUSH2 0x1638 JUMP JUMPDEST PUSH1 0xFF NOT DUP6 AND DUP10 DUP5 ADD MSTORE DUP4 ISZERO ISZERO PUSH1 0x5 SHL DUP10 ADD DUP4 ADD SWAP6 POP PUSH2 0x1638 JUMP JUMPDEST DUP10 PUSH1 0x0 MSTORE DUP7 PUSH1 0x0 KECCAK256 PUSH1 0x0 JUMPDEST DUP6 DUP2 LT ISZERO PUSH2 0x1630 JUMPI DUP2 SLOAD DUP12 DUP3 ADD DUP7 ADD MSTORE SWAP1 DUP4 ADD SWAP1 DUP9 ADD PUSH2 0x1615 JUMP JUMPDEST DUP11 ADD DUP5 ADD SWAP7 POP POP JUMPDEST POP SWAP4 SWAP9 SWAP8 POP POP POP POP POP POP POP POP JUMP JUMPDEST PUSH1 0x0 DUP1 PUSH1 0x40 DUP4 DUP6 SUB SLT ISZERO PUSH2 0x1659 JUMPI PUSH1 0x0 DUP1 REVERT JUMPDEST POP POP DUP1 MLOAD PUSH1 0x20 SWAP1 SWAP2 ADD MLOAD SWAP1 SWAP3 SWAP1 SWAP2 POP JUMP JUMPDEST PUSH1 0x0 DUP1 DUP4 SLOAD PUSH2 0x1678 DUP2 PUSH2 0x1422 JUMP JUMPDEST PUSH1 0x1 DUP3 DUP2 AND DUP1 ISZERO PUSH2 0x1690 JUMPI PUSH1 0x1 DUP2 EQ PUSH2 0x16A5 JUMPI PUSH2 0x16D4 JUMP JUMPDEST PUSH1 0xFF NOT DUP5 AND DUP8 MSTORE DUP3 ISZERO ISZERO DUP4 MUL DUP8 ADD SWAP5 POP PUSH2 0x16D4 JUMP JUMPDEST DUP8 PUSH1 0x0 MSTORE PUSH1 0x20 DUP1 PUSH1 0x0 KECCAK256 PUSH1 0x0 JUMPDEST DUP6 DUP2 LT ISZERO PUSH2 0x16CB JUMPI DUP2 SLOAD DUP11 DUP3 ADD MSTORE SWAP1 DUP5 ADD SWAP1 DUP3 ADD PUSH2 0x16B2 JUMP JUMPDEST POP POP POP DUP3 DUP8 ADD SWAP5 POP JUMPDEST POP SWAP3 SWAP7 SWAP6 POP POP POP POP POP POP JUMP INVALID SWAP12 PUSH24 0x9B17422D0DF92223018B32B4D1FA46E071723D6817E2486D STOP EXTCODESIZE 0xEC 0xC5 PUSH0 STOP LOG2 PUSH5 0x6970667358 0x22 SLT KECCAK256 0xD8 PUSH24 0xED30E024ED19D31BD2E6AC5D9C5D4B96E6262EDCCB9ED049 0xE4 ORIGIN SMOD DUP16 0xDF DUP10 PUSH5 0x736F6C6343 STOP ADDMOD EQ STOP CALLER "},"methodIdentifiers":{"DURATION_15M()":"7cb591c0","DURATION_1M()":"6d86e044","DURATION_5M()":"b451d1a9","addAsset(string,address)":"adc02a64","allowedMultipliers(uint256)":"1ac9612c","assetFeeds(string)":"301aa87b","batchSettle(uint256[])":"7e750398","createOrder(string,int256,bool,uint256,uint256)":"026b4fea","nextOrderId()":"2a58b330","orders(uint256)":"a85c38ef","owner()":"8da5cb5b","pause()":"8456cb59","paused()":"5c975abb","payoutPool()":"6273106a","priceFeedAdapter()":"06183110","renounceOwnership()":"715018a6","settleOrder(uint256)":"b50e801d","settled(uint256)":"28345780","transferOwnership(address)":"f2fde38b","unpause()":"3f4ba83a"}}}}}